{
  "contractName": "DogeWar",
  "abi": [
    {
      "anonymous": false,
      "inputs": [
        {
          "indexed": true,
          "internalType": "address",
          "name": "attacker",
          "type": "address"
        },
        {
          "indexed": true,
          "internalType": "address",
          "name": "defender",
          "type": "address"
        },
        {
          "indexed": false,
          "internalType": "uint256",
          "name": "status",
          "type": "uint256"
        },
        {
          "indexed": false,
          "internalType": "uint256",
          "name": "reward",
          "type": "uint256"
        }
      ],
      "name": "AttackHero",
      "type": "event"
    },
    {
      "anonymous": false,
      "inputs": [
        {
          "indexed": true,
          "internalType": "address",
          "name": "heroOwner",
          "type": "address"
        },
        {
          "indexed": false,
          "internalType": "uint256",
          "name": "heroId",
          "type": "uint256"
        }
      ],
      "name": "CreateHero",
      "type": "event"
    },
    {
      "anonymous": false,
      "inputs": [
        {
          "indexed": true,
          "internalType": "address",
          "name": "owner",
          "type": "address"
        },
        {
          "indexed": false,
          "internalType": "uint256[]",
          "name": "dogeIds",
          "type": "uint256[]"
        }
      ],
      "name": "DepositDoges",
      "type": "event"
    },
    {
      "anonymous": false,
      "inputs": [
        {
          "indexed": false,
          "internalType": "address",
          "name": "account",
          "type": "address"
        }
      ],
      "name": "Paused",
      "type": "event"
    },
    {
      "anonymous": false,
      "inputs": [
        {
          "indexed": true,
          "internalType": "address",
          "name": "heroOwner",
          "type": "address"
        },
        {
          "indexed": false,
          "internalType": "uint256",
          "name": "heroId",
          "type": "uint256"
        }
      ],
      "name": "RetireHero",
      "type": "event"
    },
    {
      "anonymous": false,
      "inputs": [
        {
          "indexed": true,
          "internalType": "bytes32",
          "name": "role",
          "type": "bytes32"
        },
        {
          "indexed": true,
          "internalType": "bytes32",
          "name": "previousAdminRole",
          "type": "bytes32"
        },
        {
          "indexed": true,
          "internalType": "bytes32",
          "name": "newAdminRole",
          "type": "bytes32"
        }
      ],
      "name": "RoleAdminChanged",
      "type": "event"
    },
    {
      "anonymous": false,
      "inputs": [
        {
          "indexed": true,
          "internalType": "bytes32",
          "name": "role",
          "type": "bytes32"
        },
        {
          "indexed": true,
          "internalType": "address",
          "name": "account",
          "type": "address"
        },
        {
          "indexed": true,
          "internalType": "address",
          "name": "sender",
          "type": "address"
        }
      ],
      "name": "RoleGranted",
      "type": "event"
    },
    {
      "anonymous": false,
      "inputs": [
        {
          "indexed": true,
          "internalType": "bytes32",
          "name": "role",
          "type": "bytes32"
        },
        {
          "indexed": true,
          "internalType": "address",
          "name": "account",
          "type": "address"
        },
        {
          "indexed": true,
          "internalType": "address",
          "name": "sender",
          "type": "address"
        }
      ],
      "name": "RoleRevoked",
      "type": "event"
    },
    {
      "anonymous": false,
      "inputs": [
        {
          "indexed": false,
          "internalType": "address",
          "name": "account",
          "type": "address"
        }
      ],
      "name": "Unpaused",
      "type": "event"
    },
    {
      "anonymous": false,
      "inputs": [
        {
          "indexed": true,
          "internalType": "address",
          "name": "owner",
          "type": "address"
        },
        {
          "indexed": false,
          "internalType": "uint256[]",
          "name": "dogeIds",
          "type": "uint256[]"
        }
      ],
      "name": "WithdrawDoges",
      "type": "event"
    },
    {
      "inputs": [],
      "name": "CEO_ROLE",
      "outputs": [
        {
          "internalType": "bytes32",
          "name": "",
          "type": "bytes32"
        }
      ],
      "stateMutability": "view",
      "type": "function",
      "constant": true
    },
    {
      "inputs": [],
      "name": "DEFAULT_ADMIN_ROLE",
      "outputs": [
        {
          "internalType": "bytes32",
          "name": "",
          "type": "bytes32"
        }
      ],
      "stateMutability": "view",
      "type": "function",
      "constant": true
    },
    {
      "inputs": [],
      "name": "accRubyPerShare",
      "outputs": [
        {
          "internalType": "uint256",
          "name": "",
          "type": "uint256"
        }
      ],
      "stateMutability": "view",
      "type": "function",
      "constant": true
    },
    {
      "inputs": [],
      "name": "accWODPerShare",
      "outputs": [
        {
          "internalType": "uint256",
          "name": "",
          "type": "uint256"
        }
      ],
      "stateMutability": "view",
      "type": "function",
      "constant": true
    },
    {
      "inputs": [
        {
          "internalType": "uint256",
          "name": "",
          "type": "uint256"
        }
      ],
      "name": "allHeroOwners",
      "outputs": [
        {
          "internalType": "address",
          "name": "",
          "type": "address"
        }
      ],
      "stateMutability": "view",
      "type": "function",
      "constant": true
    },
    {
      "inputs": [],
      "name": "devAddress",
      "outputs": [
        {
          "internalType": "address",
          "name": "",
          "type": "address"
        }
      ],
      "stateMutability": "view",
      "type": "function",
      "constant": true
    },
    {
      "inputs": [],
      "name": "dogeHero",
      "outputs": [
        {
          "internalType": "contract DogeHero",
          "name": "",
          "type": "address"
        }
      ],
      "stateMutability": "view",
      "type": "function",
      "constant": true
    },
    {
      "inputs": [],
      "name": "geneScience",
      "outputs": [
        {
          "internalType": "contract GeneScience",
          "name": "",
          "type": "address"
        }
      ],
      "stateMutability": "view",
      "type": "function",
      "constant": true
    },
    {
      "inputs": [
        {
          "internalType": "bytes32",
          "name": "role",
          "type": "bytes32"
        }
      ],
      "name": "getRoleAdmin",
      "outputs": [
        {
          "internalType": "bytes32",
          "name": "",
          "type": "bytes32"
        }
      ],
      "stateMutability": "view",
      "type": "function",
      "constant": true
    },
    {
      "inputs": [
        {
          "internalType": "bytes32",
          "name": "role",
          "type": "bytes32"
        },
        {
          "internalType": "address",
          "name": "account",
          "type": "address"
        }
      ],
      "name": "grantRole",
      "outputs": [],
      "stateMutability": "nonpayable",
      "type": "function"
    },
    {
      "inputs": [
        {
          "internalType": "bytes32",
          "name": "role",
          "type": "bytes32"
        },
        {
          "internalType": "address",
          "name": "account",
          "type": "address"
        }
      ],
      "name": "hasRole",
      "outputs": [
        {
          "internalType": "bool",
          "name": "",
          "type": "bool"
        }
      ],
      "stateMutability": "view",
      "type": "function",
      "constant": true
    },
    {
      "inputs": [
        {
          "internalType": "address",
          "name": "",
          "type": "address"
        }
      ],
      "name": "heroInfo",
      "outputs": [
        {
          "internalType": "uint32",
          "name": "rank",
          "type": "uint32"
        },
        {
          "internalType": "uint32",
          "name": "share",
          "type": "uint32"
        },
        {
          "internalType": "uint32",
          "name": "health",
          "type": "uint32"
        },
        {
          "internalType": "uint32",
          "name": "attack",
          "type": "uint32"
        },
        {
          "internalType": "uint32",
          "name": "defense",
          "type": "uint32"
        },
        {
          "internalType": "uint176",
          "name": "rubyDebt",
          "type": "uint176"
        },
        {
          "internalType": "uint176",
          "name": "wodDebt",
          "type": "uint176"
        }
      ],
      "stateMutability": "view",
      "type": "function",
      "constant": true
    },
    {
      "inputs": [],
      "name": "lastRewardBlock",
      "outputs": [
        {
          "internalType": "uint256",
          "name": "",
          "type": "uint256"
        }
      ],
      "stateMutability": "view",
      "type": "function",
      "constant": true
    },
    {
      "inputs": [],
      "name": "lowerPointsThreshold",
      "outputs": [
        {
          "internalType": "uint256",
          "name": "",
          "type": "uint256"
        }
      ],
      "stateMutability": "view",
      "type": "function",
      "constant": true
    },
    {
      "inputs": [],
      "name": "paused",
      "outputs": [
        {
          "internalType": "bool",
          "name": "",
          "type": "bool"
        }
      ],
      "stateMutability": "view",
      "type": "function",
      "constant": true
    },
    {
      "inputs": [
        {
          "internalType": "bytes32",
          "name": "role",
          "type": "bytes32"
        },
        {
          "internalType": "address",
          "name": "account",
          "type": "address"
        }
      ],
      "name": "renounceRole",
      "outputs": [],
      "stateMutability": "nonpayable",
      "type": "function"
    },
    {
      "inputs": [
        {
          "internalType": "bytes32",
          "name": "role",
          "type": "bytes32"
        },
        {
          "internalType": "address",
          "name": "account",
          "type": "address"
        }
      ],
      "name": "revokeRole",
      "outputs": [],
      "stateMutability": "nonpayable",
      "type": "function"
    },
    {
      "inputs": [],
      "name": "rubyPerBlock",
      "outputs": [
        {
          "internalType": "uint256",
          "name": "",
          "type": "uint256"
        }
      ],
      "stateMutability": "view",
      "type": "function",
      "constant": true
    },
    {
      "inputs": [],
      "name": "rubyToken",
      "outputs": [
        {
          "internalType": "contract RubyToken",
          "name": "",
          "type": "address"
        }
      ],
      "stateMutability": "view",
      "type": "function",
      "constant": true
    },
    {
      "inputs": [
        {
          "internalType": "bytes4",
          "name": "interfaceId",
          "type": "bytes4"
        }
      ],
      "name": "supportsInterface",
      "outputs": [
        {
          "internalType": "bool",
          "name": "",
          "type": "bool"
        }
      ],
      "stateMutability": "view",
      "type": "function",
      "constant": true
    },
    {
      "inputs": [],
      "name": "totalShare",
      "outputs": [
        {
          "internalType": "uint256",
          "name": "",
          "type": "uint256"
        }
      ],
      "stateMutability": "view",
      "type": "function",
      "constant": true
    },
    {
      "inputs": [],
      "name": "upperPointsThreshold",
      "outputs": [
        {
          "internalType": "uint256",
          "name": "",
          "type": "uint256"
        }
      ],
      "stateMutability": "view",
      "type": "function",
      "constant": true
    },
    {
      "inputs": [],
      "name": "wodPerBlock",
      "outputs": [
        {
          "internalType": "uint256",
          "name": "",
          "type": "uint256"
        }
      ],
      "stateMutability": "view",
      "type": "function",
      "constant": true
    },
    {
      "inputs": [],
      "name": "wodToken",
      "outputs": [
        {
          "internalType": "contract WODToken",
          "name": "",
          "type": "address"
        }
      ],
      "stateMutability": "view",
      "type": "function",
      "constant": true
    },
    {
      "inputs": [],
      "name": "initialize",
      "outputs": [],
      "stateMutability": "nonpayable",
      "type": "function"
    },
    {
      "inputs": [
        {
          "internalType": "address",
          "name": "newDev",
          "type": "address"
        }
      ],
      "name": "setDev",
      "outputs": [],
      "stateMutability": "nonpayable",
      "type": "function"
    },
    {
      "inputs": [
        {
          "internalType": "address",
          "name": "_rubyToken",
          "type": "address"
        }
      ],
      "name": "setRubyToken",
      "outputs": [],
      "stateMutability": "nonpayable",
      "type": "function"
    },
    {
      "inputs": [
        {
          "internalType": "address",
          "name": "_geneScience",
          "type": "address"
        }
      ],
      "name": "setGeneScience",
      "outputs": [],
      "stateMutability": "nonpayable",
      "type": "function"
    },
    {
      "inputs": [
        {
          "internalType": "address",
          "name": "_dogeHero",
          "type": "address"
        }
      ],
      "name": "setDogeHero",
      "outputs": [],
      "stateMutability": "nonpayable",
      "type": "function"
    },
    {
      "inputs": [
        {
          "internalType": "address",
          "name": "_wodToken",
          "type": "address"
        }
      ],
      "name": "setWODToken",
      "outputs": [],
      "stateMutability": "nonpayable",
      "type": "function"
    },
    {
      "inputs": [
        {
          "internalType": "uint256",
          "name": "_rubyPerBlock",
          "type": "uint256"
        }
      ],
      "name": "setRubyPerBlock",
      "outputs": [],
      "stateMutability": "nonpayable",
      "type": "function"
    },
    {
      "inputs": [
        {
          "internalType": "uint256",
          "name": "_wodPerBlock",
          "type": "uint256"
        }
      ],
      "name": "setWODPerBlock",
      "outputs": [],
      "stateMutability": "nonpayable",
      "type": "function"
    },
    {
      "inputs": [],
      "name": "pause",
      "outputs": [],
      "stateMutability": "nonpayable",
      "type": "function"
    },
    {
      "inputs": [],
      "name": "unpause",
      "outputs": [],
      "stateMutability": "nonpayable",
      "type": "function"
    },
    {
      "inputs": [
        {
          "internalType": "uint256[]",
          "name": "dogeIds",
          "type": "uint256[]"
        }
      ],
      "name": "depositDoges",
      "outputs": [],
      "stateMutability": "nonpayable",
      "type": "function"
    },
    {
      "inputs": [
        {
          "internalType": "uint256[]",
          "name": "dogeIds",
          "type": "uint256[]"
        }
      ],
      "name": "withdrawDoges",
      "outputs": [],
      "stateMutability": "nonpayable",
      "type": "function"
    },
    {
      "inputs": [],
      "name": "withdrawAllDoges",
      "outputs": [],
      "stateMutability": "nonpayable",
      "type": "function"
    },
    {
      "inputs": [
        {
          "internalType": "address",
          "name": "defenderAddress",
          "type": "address"
        }
      ],
      "name": "attackHero",
      "outputs": [],
      "stateMutability": "nonpayable",
      "type": "function"
    },
    {
      "inputs": [],
      "name": "harvestReward",
      "outputs": [],
      "stateMutability": "nonpayable",
      "type": "function"
    },
    {
      "inputs": [],
      "name": "pendingReward",
      "outputs": [
        {
          "internalType": "uint256",
          "name": "pendingRuby",
          "type": "uint256"
        },
        {
          "internalType": "uint256",
          "name": "pendingWOD",
          "type": "uint256"
        }
      ],
      "stateMutability": "view",
      "type": "function",
      "constant": true
    },
    {
      "inputs": [],
      "name": "updateReward",
      "outputs": [],
      "stateMutability": "nonpayable",
      "type": "function"
    },
    {
      "inputs": [
        {
          "internalType": "address",
          "name": "_attacker",
          "type": "address"
        },
        {
          "internalType": "address",
          "name": "_defender",
          "type": "address"
        }
      ],
      "name": "areInPointsRange",
      "outputs": [
        {
          "internalType": "bool",
          "name": "",
          "type": "bool"
        }
      ],
      "stateMutability": "view",
      "type": "function",
      "constant": true
    },
    {
      "inputs": [
        {
          "internalType": "uint256",
          "name": "_lowerPointsThreshold",
          "type": "uint256"
        },
        {
          "internalType": "uint256",
          "name": "_upperPointsThreshold",
          "type": "uint256"
        }
      ],
      "name": "setPointsThreshold",
      "outputs": [],
      "stateMutability": "nonpayable",
      "type": "function"
    },
    {
      "inputs": [
        {
          "internalType": "address",
          "name": "owner",
          "type": "address"
        }
      ],
      "name": "balanceOf",
      "outputs": [
        {
          "internalType": "uint256",
          "name": "",
          "type": "uint256"
        }
      ],
      "stateMutability": "view",
      "type": "function",
      "constant": true
    },
    {
      "inputs": [
        {
          "internalType": "uint256",
          "name": "dogeId",
          "type": "uint256"
        }
      ],
      "name": "ownerOf",
      "outputs": [
        {
          "internalType": "address",
          "name": "",
          "type": "address"
        }
      ],
      "stateMutability": "view",
      "type": "function",
      "constant": true
    },
    {
      "inputs": [
        {
          "internalType": "address",
          "name": "owner",
          "type": "address"
        }
      ],
      "name": "getDoges",
      "outputs": [
        {
          "internalType": "uint256[]",
          "name": "",
          "type": "uint256[]"
        }
      ],
      "stateMutability": "view",
      "type": "function",
      "constant": true
    },
    {
      "inputs": [],
      "name": "getTotalHeroOwner",
      "outputs": [
        {
          "internalType": "uint256",
          "name": "",
          "type": "uint256"
        }
      ],
      "stateMutability": "view",
      "type": "function",
      "constant": true
    },
    {
      "inputs": [],
      "name": "getHeroOwners",
      "outputs": [
        {
          "internalType": "address[]",
          "name": "",
          "type": "address[]"
        }
      ],
      "stateMutability": "view",
      "type": "function",
      "constant": true
    },
    {
      "inputs": [
        {
          "internalType": "uint256",
          "name": "dogeId",
          "type": "uint256"
        }
      ],
      "name": "getDogeTraits",
      "outputs": [
        {
          "internalType": "uint256[12]",
          "name": "traits",
          "type": "uint256[12]"
        }
      ],
      "stateMutability": "view",
      "type": "function",
      "constant": true
    },
    {
      "inputs": [
        {
          "internalType": "uint256",
          "name": "dogeId",
          "type": "uint256"
        }
      ],
      "name": "getDogeStat",
      "outputs": [
        {
          "internalType": "uint256",
          "name": "share",
          "type": "uint256"
        },
        {
          "internalType": "uint256",
          "name": "health",
          "type": "uint256"
        },
        {
          "internalType": "uint256",
          "name": "attack",
          "type": "uint256"
        },
        {
          "internalType": "uint256",
          "name": "defense",
          "type": "uint256"
        }
      ],
      "stateMutability": "view",
      "type": "function",
      "constant": true
    }
  ],
  "bytecode": "0x608060405234801561001057600080fd5b50613b72806100206000396000f3fe608060405234801561001057600080fd5b50600436106102d65760003560e01c8063620db60911610182578063a217fddf116100e9578063d477f05f116100a2578063ee4091871161007c578063ee409187146106d2578063f07e8119146106f2578063f2b47d5214610705578063f36c0a7214610718576102d6565b8063d477f05f146105ef578063d547741f14610602578063edde9fa814610615576102d6565b8063a217fddf1461058d578063a9f8d18114610595578063b514be631461059e578063c248b684146105b3578063ccd14568146105bc578063cecf653d146105cf576102d6565b806387255e771161013b57806387255e77146105035780638a9bcbce1461050c5780639186ba881461051f57806391d14854146105345780639c1f6bf8146105475780639ddb21a71461055a576102d6565b8063620db609146104a75780636352211e146104ba57806370a08231146104cd5780637d36284e146104e05780638129fc1c146104f35780638456cb59146104fb576102d6565b806336568abe116102415780634ca4e38c116101fa5780635a34928e116101d45780635a34928e146104785780635b84b984146104805780635c975abb146104895780635d0f008614610494576102d6565b80634ca4e38c1461045e578063562f5e16146104675780635676d3f31461046f576102d6565b806336568abe146103f7578063384a9b171461040a5780633a9b45041461041d5780633ad10ef6146104305780633e57a5ec146104435780633f4ba83a14610456576102d6565b80631738e97b116102935780631738e97b146103685780631a1d2964146103935780631e09a6c1146103a6578063248a9ca3146103ae57806325d16575146103d15780632f2ff15d146103e4576102d6565b806301ffc9a7146102db578063026c420714610303578063057db2371461031a57806306b66e1f1461032f578063137ee36e1461034257806315ac06af1461035f575b600080fd5b6102ee6102e9366004613724565b610720565b60405190151581526020015b60405180910390f35b61030c60ce5481565b6040519081526020016102fa565b61032d6103283660046136ea565b610759565b005b61032d61033d3660046134f3565b61076c565b61034a6107a8565b604080519283526020830191909152016102fa565b61030c60d05481565b60d45461037b906001600160a01b031681565b6040516001600160a01b0390911681526020016102fa565b61037b6103a13660046136ea565b61094b565b61032d610975565b61030c6103bc3660046136ea565b60009081526065602052604090206001015490565b61032d6103df3660046135a7565b610aac565b61032d6103f2366004613702565b610c25565b61032d610405366004613702565b610c50565b61032d6104183660046134f3565b610cce565b61032d61042b366004613764565b610d0a565b60d15461037b906001600160a01b031681565b61032d6104513660046134f3565b610d55565b61032d610d91565b61030c60cc5481565b60d25461030c565b61030c60c95481565b61032d610dfe565b61030c60cf5481565b60975460ff166102ee565b61032d6104a23660046134f3565b610eb6565b60d35461037b906001600160a01b031681565b61037b6104c83660046136ea565b611193565b61030c6104db3660046134f3565b6111b5565b6102ee6104ee36600461350d565b6111e6565b61032d611589565b61032d6116aa565b61030c60cb5481565b61032d61051a3660046136ea565b6116ee565b610527611700565b6040516102fa91906137fa565b6102ee610542366004613702565b611762565b61032d6105553660046134f3565b61178d565b61056d6105683660046136ea565b6117c9565b6040805194855260208501939093529183015260608201526080016102fa565b61030c600081565b61030c60cd5481565b61030c600080516020613b1d83398151915281565b61030c60ca5481565b61032d6105ca3660046135a7565b6118c6565b6105e26105dd3660046136ea565b611a0a565b6040516102fa9190613847565b61032d6105fd3660046134f3565b611b24565b61032d610610366004613702565b611b66565b6106816106233660046134f3565b60d96020526000908152604090208054600182015460029092015463ffffffff80831693600160201b8404821693600160401b8104831693600160601b8204841693600160801b909204909116916001600160b01b03908116911687565b6040805163ffffffff9889168152968816602088015294871694860194909452918516606085015290931660808301526001600160b01b0392831660a08301529190911660c082015260e0016102fa565b6106e56106e03660046134f3565b611b8c565b6040516102fa9190613879565b60d65461037b906001600160a01b031681565b60d55461037b906001600160a01b031681565b61032d611bf8565b60006001600160e01b03198216637965db0b60e01b148061075157506301ffc9a760e01b6001600160e01b03198316145b90505b919050565b600061076681335b611cb6565b5060cb55565b600080516020613b1d8339815191526107858133610761565b5060d380546001600160a01b0319166001600160a01b0392909216919091179055565b33600090815260d960209081526040808320815160e081018352815463ffffffff8082168352600160201b8204811695830195909552600160401b8104851693820193909352600160601b830484166060820152600160801b909204909216608082015260018201546001600160b01b0390811660a083015260029092015490911660c082015260cf5460d05460cd5484939291904311801561084c575060ce5415155b156108c457600061085e60cd54611d1a565b9050600061086d60cd54611d34565b60ce549091506108828364e8d4a510006139f3565b61088c91906139d3565b6108969085613993565b60ce549094506108ab8264e8d4a510006139f3565b6108b591906139d3565b6108bf9084613993565b925050505b8260a001516001600160b01b031664e8d4a5100083856020015163ffffffff166108ee91906139f3565b6108f891906139d3565b6109029190613a12565b94508260c001516001600160b01b031664e8d4a5100082856020015163ffffffff1661092e91906139f3565b61093891906139d3565b6109429190613a12565b93505050509091565b60d2818154811061095b57600080fd5b6000918252602090912001546001600160a01b0316905081565b60975460ff16156109a15760405162461bcd60e51b8152600401610998906138ed565b60405180910390fd5b33600081815260d76020526040902054600214156109be57600080fd5b6001600160a01b038116600090815260d760205260408120600290556109e3336111b5565b9050600081116109f257600080fd5b6109fa611bf8565b33600081815260d96020526040902090610a15908290611ebb565b805460ce8054600160201b90920463ffffffff1691600090610a38908490613a12565b909155505033600081815260d96020526040902080546001600160a01b03191681556001810180546001600160b01b0319908116909155600290910180549091169055610a8490611ed0565b610a8d3361204e565b50506001600160a01b0316600090815260d76020526040902060019055565b60975460ff1615610acf5760405162461bcd60e51b8152600401610998906138ed565b33600081815260d7602052604090205460021415610aec57600080fd5b6001600160a01b038116600090815260d76020526040902060029055610b10611bf8565b33600090815260d9602052604090208054600160201b900463ffffffff1615610b4257610b3d8133611ebb565b610b62565b33600090815260d86020526040902054600214610b6257610b62336121f7565b60005b8351811015610bb157610b9f33858381518110610b9257634e487b7160e01b600052603260045260246000fd5b60200260200101516122aa565b80610ba981613ab1565b915050610b65565b50610bbc81846123a6565b610bc581612561565b336001600160a01b03167ff4ba79b5b661906eb4b8dbb9cf41968153c6743b405e2fa9dbb2c9efee7abbd584604051610bfe9190613879565b60405180910390a2506001600160a01b0316600090815260d7602052604090206001905550565b600082815260656020526040902060010154610c418133610761565b610c4b8383612573565b505050565b6001600160a01b0381163314610cc05760405162461bcd60e51b815260206004820152602f60248201527f416363657373436f6e74726f6c3a2063616e206f6e6c792072656e6f756e636560448201526e103937b632b9903337b91039b2b63360891b6064820152608401610998565b610cca82826125f9565b5050565b600080516020613b1d833981519152610ce78133610761565b5060d480546001600160a01b0319166001600160a01b0392909216919091179055565b600080516020613b1d833981519152610d238133610761565b600083118015610d335750606483105b610d3c57600080fd5b60008211610d4957600080fd5b5060c99190915560ca55565b600080516020613b1d833981519152610d6e8133610761565b5060d680546001600160a01b0319166001600160a01b0392909216919091179055565b600080516020613b1d833981519152610daa8133610761565b60975460ff16610df35760405162461bcd60e51b815260206004820152601460248201527314185d5cd8589b194e881b9bdd081c185d5cd95960621b6044820152606401610998565b610dfb612660565b50565b60975460ff1615610e215760405162461bcd60e51b8152600401610998906138ed565b33600081815260d7602052604090205460021415610e3e57600080fd5b6001600160a01b038116600090815260d76020526040902060029055610e62611bf8565b33600090815260d9602052604090208054600160201b900463ffffffff1615610e8f57610e8f8133611ebb565b610e9881612561565b506001600160a01b0316600090815260d76020526040902060019055565b60975460ff1615610ed95760405162461bcd60e51b8152600401610998906138ed565b33600081815260d7602052604090205460021415610ef657600080fd5b6001600160a01b038116600090815260d76020526040902060029055610f1a611bf8565b6000610f25836111b5565b11610f2f57600080fd5b610f3933836111e6565b610f4257600080fd5b6001600160a01b038216600090815260d960205260408082203383529082208054825492939192829163ffffffff600160801b808304821693600160601b808504841694600160401b90819004851694938304841693918304821692041684831015610fcf57610fb28386613a12565b9750878111610fc2576000610fcc565b610fcc8882613a12565b90505b81861015610ffe57610fe18683613a12565b9650868411610ff1576000610ffb565b610ffb8785613a12565b93505b60008082611093575060016110138c336126f3565b915061101e8c612751565b8b5463ffffffff161561105f578b5463ffffffff168c600061103f83613a91565b91906101000a81548163ffffffff021916908363ffffffff160217905550505b8a5463ffffffff168b600061107383613acc565b91906101000a81548163ffffffff021916908363ffffffff160217905550505b856111115750895460029063ffffffff16156110dd578a5463ffffffff168b60006110bd83613a91565b91906101000a81548163ffffffff021916908363ffffffff160217905550505b8b5463ffffffff168c60006110f183613acc565b91906101000a81548163ffffffff021916908363ffffffff160217905550505b8d6001600160a01b0316336001600160a01b03167fd365c6431b4f0de156e5ebf74a6715a1a4bff1ba8e31aec5849fd8447adcfe8c838560405161115f929190918252602082015260400190565b60405180910390a35050506001600160a01b03909916600090815260d7602052604090206001905550505050505050505050565b600081815260da60205260408120546001600160a01b03168061075157600080fd5b60006001600160a01b0382166111ca57600080fd5b506001600160a01b0316600090815260db602052604090205490565b60008060d96000856001600160a01b03166001600160a01b031681526020019081526020016000206040518060e00160405290816000820160009054906101000a900463ffffffff1663ffffffff1663ffffffff1681526020016000820160049054906101000a900463ffffffff1663ffffffff1663ffffffff1681526020016000820160089054906101000a900463ffffffff1663ffffffff1663ffffffff16815260200160008201600c9054906101000a900463ffffffff1663ffffffff1663ffffffff1681526020016000820160109054906101000a900463ffffffff1663ffffffff1663ffffffff1681526020016001820160009054906101000a90046001600160b01b03166001600160b01b03166001600160b01b031681526020016002820160009054906101000a90046001600160b01b03166001600160b01b03166001600160b01b0316815250509050600060d96000856001600160a01b03166001600160a01b031681526020019081526020016000206040518060e00160405290816000820160009054906101000a900463ffffffff1663ffffffff1663ffffffff1681526020016000820160049054906101000a900463ffffffff1663ffffffff1663ffffffff1681526020016000820160089054906101000a900463ffffffff1663ffffffff1663ffffffff16815260200160008201600c9054906101000a900463ffffffff1663ffffffff1663ffffffff1681526020016000820160109054906101000a900463ffffffff1663ffffffff1663ffffffff1681526020016001820160009054906101000a90046001600160b01b03166001600160b01b03166001600160b01b031681526020016002820160009054906101000a90046001600160b01b03166001600160b01b03166001600160b01b03168152505090506000826000015163ffffffff1690506000826000015163ffffffff16905060006001600160a01b0316876001600160a01b031614806114cd57506001600160a01b038616155b806114e95750856001600160a01b0316876001600160a01b0316145b156114fb576000945050505050611583565b6014821015611511576001945050505050611583565b60008183101561154d5760648361152884836139f3565b61153291906139d3565b61153c9190613a12565b60ca54119550611583945050505050565b60006115598385613a12565b9050836115678260646139f3565b61157191906139d3565b60c95411965061158395505050505050565b92915050565b600054610100900460ff166115a45760005460ff16156115a8565b303b155b61160b5760405162461bcd60e51b815260206004820152602e60248201527f496e697469616c697a61626c653a20636f6e747261637420697320616c72656160448201526d191e481a5b9a5d1a585b1a5e995960921b6064820152608401610998565b600054610100900460ff1615801561162d576000805461ffff19166101011790555b6116356127a2565b61163d6127e1565b611648600033612818565b611660600080516020613b1d83398151915233612818565b60d180546001600160a01b0319163317905568056bc75e2d6310000060cb55678ac7230489e8000060cc55602360c9556103e860ca558015610dfb576000805461ff001916905550565b600080516020613b1d8339815191526116c38133610761565b60975460ff16156116e65760405162461bcd60e51b8152600401610998906138ed565b610dfb612822565b60006116fa8133610761565b5060cc55565b606060d280548060200260200160405190810160405280929190818152602001828054801561175857602002820191906000526020600020905b81546001600160a01b0316815260019091019060200180831161173a575b5050505050905090565b60009182526065602090815260408084206001600160a01b0393909316845291905290205460ff1690565b600080516020613b1d8339815191526117a68133610761565b5060d580546001600160a01b0319166001600160a01b0392909216919091179055565b60008060008060006117da86611a0a565b90506117ed8160025b602002015161287a565b6117f88260016117e3565b6118038360006117e3565b61180d9190613993565b6118179190613993565b94506118248160056117e3565b61182f8260046117e3565b61183a8360036117e3565b6118449190613993565b61184e9190613993565b935061185b8160086117e3565b6118668260076117e3565b6118718360066117e3565b61187b9190613993565b6118859190613993565b925061189281600b6117e3565b61189d82600a6117e3565b6118a88360096117e3565b6118b29190613993565b6118bc9190613993565b9150509193509193565b60975460ff16156118e95760405162461bcd60e51b8152600401610998906138ed565b33600081815260d760205260409020546002141561190657600080fd5b6001600160a01b038116600090815260d7602052604090206002905561192c33836128da565b61193557600080fd5b61193d611bf8565b33600081815260d96020526040902090611958908290611ebb565b6119628184612953565b61196b81612561565b60005b83518110156119ba576119a83385838151811061199b57634e487b7160e01b600052603260045260246000fd5b6020026020010151612adb565b806119b281613ab1565b91505061196e565b506119c4336111b5565b6119d1576119d133611ed0565b336001600160a01b03167fd6e33294c37dc26d64f7712d67234cf65a3a35b341bc2b8cb5fb964c00c1a8e684604051610bfe9190613879565b611a1261347b565b60d4546040516392c36c3d60e01b8152600481018490526000916001600160a01b0316906392c36c3d906024016101406040518083038186803b158015611a5857600080fd5b505afa158015611a6c573d6000803e3d6000fd5b505050506040513d601f19601f82011682018060405250810190611a909190613669565b60d5546040516303bd3a5160e51b8152919b506001600160a01b031699506377a74a209850611acc97508a965060040194506138b19350505050565b6101806040518083038186803b158015611ae557600080fd5b505afa158015611af9573d6000803e3d6000fd5b505050506040513d601f19601f82011682018060405250810190611b1d919061353f565b9392505050565b6000611b308133610761565b6001600160a01b038216611b4357600080fd5b5060d180546001600160a01b0319166001600160a01b0392909216919091179055565b600082815260656020526040902060010154611b828133610761565b610c4b83836125f9565b6001600160a01b038116600090815260db6020908152604091829020805483518184028101840190945280845260609392830182828015611bec57602002820191906000526020600020905b815481526020019060010190808311611bd8575b50505050509050919050565b60cd5460ce54438210611c0c575050611cb4565b80611c1c5750504360cd55611cb4565b6000611c2783611d1a565b90506000611c3484611d34565b9050611c403083612b55565b611c4a3082612c10565b82611c5a8364e8d4a510006139f3565b611c6491906139d3565b60cf6000828254611c759190613993565b90915550839050611c8b8264e8d4a510006139f3565b611c9591906139d3565b60d06000828254611ca69190613993565b90915550504360cd55505050505b565b611cc08282611762565b610cca57611cd8816001600160a01b03166014612ca0565b611ce3836020612ca0565b604051602001611cf4929190613785565b60408051601f198184030181529082905262461bcd60e51b8252610998916004016138ba565b60cb54600090611d2a8343613a12565b61075191906139f3565b60008060cc548343611d469190613a12565b611d5091906139f3565b9050600060d660009054906101000a90046001600160a01b03166001600160a01b03166318160ddd6040518163ffffffff1660e01b815260040160206040518083038186803b158015611da257600080fd5b505afa158015611db6573d6000803e3d6000fd5b505050506040513d601f19601f82011682018060405250810190611dda919061374c565b9050600060d660009054906101000a90046001600160a01b03166001600160a01b03166332cb6b0c6040518163ffffffff1660e01b815260040160206040518083038186803b158015611e2c57600080fd5b505afa158015611e40573d6000803e3d6000fd5b505050506040513d601f19601f82011682018060405250810190611e64919061374c565b905080600a611e7485600b6139f3565b611e7e91906139d3565b611e889084613993565b1115611eb257600b611e9a8383613a12565b611ea590600a6139f3565b611eaf91906139d3565b92505b50909392505050565b611ec582826126f3565b50610c4b8282612e82565b60d254600090611ee290600190613a12565b6001600160a01b038316600081815260dd602052604090819020549051929350917ff7224f86a26280676ad23bd8909dc65240c4e3e4cfd1f64d55f46028195d4fa190611f329084815260200190565b60405180910390a2808214611fdc57600060d28381548110611f6457634e487b7160e01b600052603260045260246000fd5b60009182526020909120015460d280546001600160a01b039092169250829184908110611fa157634e487b7160e01b600052603260045260246000fd5b600091825260208083209190910180546001600160a01b0319166001600160a01b0394851617905592909116815260dd909152604090208190555b6001600160a01b038316600090815260dd602052604081205560d280548061201457634e487b7160e01b600052603160045260246000fd5b60008281526020808220830160001990810180546001600160a01b031916905590920190925533825260d890526040902060019055505050565b6001600160a01b038116600090815260db60209081526040808320805482518185028101850190935280835291929091908301828280156120ae57602002820191906000526020600020905b81548152602001906001019080831161209a575b50505050509050816001600160a01b03167fd6e33294c37dc26d64f7712d67234cf65a3a35b341bc2b8cb5fb964c00c1a8e6826040516120ee9190613879565b60405180910390a26001600160a01b038216600090815260db602052604081206121179161349a565b60005b8151811015610c4b57600082828151811061214557634e487b7160e01b600052603260045260246000fd5b602090810291909101810151600081815260da8352604080822080546001600160a01b031916905560dc9093528281205560d45491516323b872dd60e01b81523060048201526001600160a01b038781166024830152604482018390529193509116906323b872dd90606401600060405180830381600087803b1580156121cb57600080fd5b505af11580156121df573d6000803e3d6000fd5b505050505080806121ef90613ab1565b91505061211a565b33600090815260d8602090815260408083206002905560d2546001600160a01b03851680855260dd84529382902081905590519081527fb0f6b6ee1dc7390496eb06ad08034ce14f96961fe2d47177a8ee821bdd51f649910160405180910390a260d280546001810182556000919091527ff2192e1030363415d7b4fb0406540a0060e8e2fc8982f3f32289379e11fa65460180546001600160a01b0319166001600160a01b0392909216919091179055565b60d454604051630ca0549b60e11b8152600481018390526001600160a01b0390911690631940a9369060240160206040518083038186803b1580156122ee57600080fd5b505afa158015612302573d6000803e3d6000fd5b505050506040513d601f19601f82011682018060405250810190612326919061364f565b1561233057600080fd5b60d4546040516323b872dd60e01b81526001600160a01b03848116600483015230602483015260448201849052909116906323b872dd90606401600060405180830381600087803b15801561238457600080fd5b505af1158015612398573d6000803e3d6000fd5b50505050610cca8282612ee0565b60008060008060005b855181101561243f576000806000806123ee8a86815181106123e157634e487b7160e01b600052603260045260246000fd5b60200260200101516117c9565b935093509350935083896124029190613993565b985061240e8389613993565b975061241a8288613993565b96506124268187613993565b955050505050808061243790613ab1565b9150506123af565b508360ce60008282546124529190613993565b9091555050855484908790600490612478908490600160201b900463ffffffff166139ab565b92506101000a81548163ffffffff021916908363ffffffff160217905550828660000160088282829054906101000a900463ffffffff166124b991906139ab565b92506101000a81548163ffffffff021916908363ffffffff1602179055508186600001600c8282829054906101000a900463ffffffff166124fa91906139ab565b92506101000a81548163ffffffff021916908363ffffffff160217905550808660000160108282829054906101000a900463ffffffff1661253b91906139ab565b92506101000a81548163ffffffff021916908363ffffffff160217905550505050505050565b61256a81612751565b610dfb81612f2d565b61257d8282611762565b610cca5760008281526065602090815260408083206001600160a01b03851684529091529020805460ff191660011790556125b53390565b6001600160a01b0316816001600160a01b0316837f2f8788117e7eff1d82e926ec794901d17c78024a50270940304540a733656f0d60405160405180910390a45050565b6126038282611762565b15610cca5760008281526065602090815260408083206001600160a01b0385168085529252808320805460ff1916905551339285917ff6391f5c32d9c69d2a47ea670b442974b53935d1edc7fd64eb21e047a839171b9190a45050565b60975460ff166126a95760405162461bcd60e51b815260206004820152601460248201527314185d5cd8589b194e881b9bdd081c185d5cd95960621b6044820152606401610998565b6097805460ff191690557f5db9ee0a495bf2e6ff9c91a7834c1ba4fdd244a5e8aa4e537bd38aeae4b073aa335b6040516001600160a01b03909116815260200160405180910390a1565b600182015460cf54835460009283926001600160b01b039091169164e8d4a510009161272b91600160201b900463ffffffff166139f3565b61273591906139d3565b61273f9190613a12565b90508015611b1d57611b1d8382612f7e565b60cf54815464e8d4a510009161277391600160201b900463ffffffff166139f3565b61277d91906139d3565b60019190910180546001600160b01b0319166001600160b01b03909216919091179055565b600054610100900460ff166127c95760405162461bcd60e51b815260040161099890613917565b6127d161311e565b6127d961311e565b611cb461311e565b600054610100900460ff166128085760405162461bcd60e51b815260040161099890613917565b61281061311e565b611cb4613145565b610cca8282612573565b60975460ff16156128455760405162461bcd60e51b8152600401610998906138ed565b6097805460ff191660011790557f62e78cea01bee320cd4e420270b5ea74000d11b0c9f74754ebdbfc544b05a2586126d63390565b6000601082101561288c575080610754565b60188210156128a7576128a08260026139f3565b9050610754565b601c8210156128bb576128a08260066139f3565b601e8210156128cf576128a08260186139f3565b6107518260786139f3565b600160005b825181101561294c57836001600160a01b031661292284838151811061291557634e487b7160e01b600052603260045260246000fd5b6020026020010151611193565b6001600160a01b03161461293a576000915050611583565b8061294481613ab1565b9150506128df565b5092915050565b60008060008060005b85518110156129df5760008060008061298e8a86815181106123e157634e487b7160e01b600052603260045260246000fd5b935093509350935083896129a29190613993565b98506129ae8389613993565b97506129ba8288613993565b96506129c68187613993565b95505050505080806129d790613ab1565b91505061295c565b508360ce60008282546129f29190613a12565b9091555050855484908790600490612a18908490600160201b900463ffffffff16613a29565b92506101000a81548163ffffffff021916908363ffffffff160217905550828660000160088282829054906101000a900463ffffffff16612a599190613a29565b92506101000a81548163ffffffff021916908363ffffffff1602179055508186600001600c8282829054906101000a900463ffffffff16612a9a9190613a29565b92506101000a81548163ffffffff021916908363ffffffff160217905550808660000160108282829054906101000a900463ffffffff1661253b9190613a29565b612ae481613178565b60d4546040516323b872dd60e01b81523060048201526001600160a01b03848116602483015260448201849052909116906323b872dd906064015b600060405180830381600087803b158015612b3957600080fd5b505af1158015612b4d573d6000803e3d6000fd5b505050505050565b60d3546040516340c10f1960e01b81526001600160a01b03848116600483015260248201849052909116906340c10f1990604401600060405180830381600087803b158015612ba357600080fd5b505af1158015612bb7573d6000803e3d6000fd5b505060d35460d1546001600160a01b0391821693506340c10f19925016612bdf600a856139d3565b6040516001600160e01b031960e085901b1681526001600160a01b0390921660048301526024820152604401612b1f565b8015610cca5760d6546040516340c10f1960e01b81526001600160a01b03848116600483015260248201849052909116906340c10f1990604401600060405180830381600087803b158015612c6457600080fd5b505af1158015612c78573d6000803e3d6000fd5b505060d65460d1546001600160a01b0391821693506340c10f19925016612bdf600a856139d3565b60606000612caf8360026139f3565b612cba906002613993565b67ffffffffffffffff811115612ce057634e487b7160e01b600052604160045260246000fd5b6040519080825280601f01601f191660200182016040528015612d0a576020820181803683370190505b509050600360fc1b81600081518110612d3357634e487b7160e01b600052603260045260246000fd5b60200101906001600160f81b031916908160001a905350600f60fb1b81600181518110612d7057634e487b7160e01b600052603260045260246000fd5b60200101906001600160f81b031916908160001a9053506000612d948460026139f3565b612d9f906001613993565b90505b6001811115612e33576f181899199a1a9b1b9c1cb0b131b232b360811b85600f1660108110612de157634e487b7160e01b600052603260045260246000fd5b1a60f81b828281518110612e0557634e487b7160e01b600052603260045260246000fd5b60200101906001600160f81b031916908160001a90535060049490941c93612e2c81613a7a565b9050612da2565b508315611b1d5760405162461bcd60e51b815260206004820181905260248201527f537472696e67733a20686578206c656e67746820696e73756666696369656e746044820152606401610998565b600282015460d054835460009283926001600160b01b039091169164e8d4a5100091612eba91600160201b900463ffffffff166139f3565b612ec491906139d3565b612ece9190613a12565b90508015611b1d57611b1d83826131b0565b6001600160a01b038216612ef357600080fd5b612eff600083836132a8565b600090815260da6020526040902080546001600160a01b0319166001600160a01b0392909216919091179055565b60d054815464e8d4a5100091612f4f91600160201b900463ffffffff166139f3565b612f5991906139d3565b60029190910180546001600160b01b0319166001600160b01b03909216919091179055565b60d3546040516370a0823160e01b81523060048201526000916001600160a01b0316906370a082319060240160206040518083038186803b158015612fc257600080fd5b505afa158015612fd6573d6000803e3d6000fd5b505050506040513d601f19601f82011682018060405250810190612ffa919061374c565b9050808211156130915760d35460405163a9059cbb60e01b81526001600160a01b038581166004830152602482018490529091169063a9059cbb906044015b602060405180830381600087803b15801561305357600080fd5b505af1158015613067573d6000803e3d6000fd5b505050506040513d601f19601f8201168201806040525081019061308b919061364f565b50610c4b565b60d35460405163a9059cbb60e01b81526001600160a01b038581166004830152602482018590529091169063a9059cbb906044015b602060405180830381600087803b1580156130e057600080fd5b505af11580156130f4573d6000803e3d6000fd5b505050506040513d601f19601f82011682018060405250810190613118919061364f565b50505050565b600054610100900460ff16611cb45760405162461bcd60e51b815260040161099890613917565b600054610100900460ff1661316c5760405162461bcd60e51b815260040161099890613917565b6097805460ff19169055565b600061318382611193565b9050613191816000846132a8565b50600090815260da6020526040902080546001600160a01b0319169055565b60d6546040516370a0823160e01b81523060048201526000916001600160a01b0316906370a082319060240160206040518083038186803b1580156131f457600080fd5b505afa158015613208573d6000803e3d6000fd5b505050506040513d601f19601f8201168201806040525081019061322c919061374c565b90508082111561326f5760d65460405163a9059cbb60e01b81526001600160a01b038581166004830152602482018490529091169063a9059cbb90604401613039565b60d65460405163a9059cbb60e01b81526001600160a01b038581166004830152602482018590529091169063a9059cbb906044016130c6565b6001600160a01b0383166132bb576132de565b816001600160a01b0316836001600160a01b0316146132de576132de838261334c565b6001600160a01b0382166132f157610c4b565b826001600160a01b0316826001600160a01b031614610c4b576001600160a01b038216600090815260db60208181526040808420805486865260dc845291852082905592825260018101835591835290912001819055610c4b565b60006001613359846111b5565b6133639190613a12565b600083815260dc60209081526040808320546001600160a01b038816845260db90925290912091925090818314613430578083815481106133b457634e487b7160e01b600052603260045260246000fd5b90600052602060002001548183815481106133df57634e487b7160e01b600052603260045260246000fd5b90600052602060002001819055508160dc600083858154811061341257634e487b7160e01b600052603260045260246000fd5b90600052602060002001548152602001908152602001600020819055505b600084815260dc6020526040812055805481908061345e57634e487b7160e01b600052603160045260246000fd5b600190038181906000526020600020016000905590555050505050565b604051806101800160405280600c906020820280368337509192915050565b5080546000825590600052602060002090810190610dfb91905b808211156134c857600081556001016134b4565b5090565b80356001600160a01b038116811461075457600080fd5b8051801515811461075457600080fd5b600060208284031215613504578081fd5b611b1d826134cc565b6000806040838503121561351f578081fd5b613528836134cc565b9150613536602084016134cc565b90509250929050565b6000610180808385031215613552578182fd5b83601f840112613560578182fd5b61356981613962565b8084868487011115613579578485fd5b8493505b600c84101561359d5780518352600193909301926020928301920161357d565b5095945050505050565b600060208083850312156135b9578182fd5b823567ffffffffffffffff808211156135d0578384fd5b818501915085601f8301126135e3578384fd5b8135818111156135f5576135f5613b06565b8060051b9150613606848301613962565b8181528481019084860184860187018a1015613620578788fd5b8795505b83861015613642578035835260019590950194918601918601613624565b5098975050505050505050565b600060208284031215613660578081fd5b611b1d826134e3565b6000806000806000806000806000806101408b8d031215613688578586fd5b6136918b6134e3565b995061369f60208c016134e3565b985060408b0151975060608b0151965060808b0151955060a08b0151945060c08b0151935060e08b015192506101008b015191506101208b015190509295989b9194979a5092959850565b6000602082840312156136fb578081fd5b5035919050565b60008060408385031215613714578182fd5b82359150613536602084016134cc565b600060208284031215613735578081fd5b81356001600160e01b031981168114611b1d578182fd5b60006020828403121561375d578081fd5b5051919050565b60008060408385031215613776578182fd5b50508035926020909101359150565b60007f416363657373436f6e74726f6c3a206163636f756e7420000000000000000000825283516137bd816017850160208801613a4e565b7001034b99036b4b9b9b4b733903937b6329607d1b60179184019182015283516137ee816028840160208801613a4e565b01602801949350505050565b6020808252825182820181905260009190848201906040850190845b8181101561383b5783516001600160a01b031683529284019291840191600101613816565b50909695505050505050565b6101808101818360005b600c811015613870578151835260209283019290910190600101613851565b50505092915050565b6020808252825182820181905260009190848201906040850190845b8181101561383b57835183529284019291840191600101613895565b90815260200190565b60006020825282518060208401526138d9816040850160208701613a4e565b601f01601f19169190910160400192915050565b60208082526010908201526f14185d5cd8589b194e881c185d5cd95960821b604082015260600190565b6020808252602b908201527f496e697469616c697a61626c653a20636f6e7472616374206973206e6f74206960408201526a6e697469616c697a696e6760a81b606082015260800190565b604051601f8201601f1916810167ffffffffffffffff8111828210171561398b5761398b613b06565b604052919050565b600082198211156139a6576139a6613af0565b500190565b600063ffffffff8083168185168083038211156139ca576139ca613af0565b01949350505050565b6000826139ee57634e487b7160e01b81526012600452602481fd5b500490565b6000816000190483118215151615613a0d57613a0d613af0565b500290565b600082821015613a2457613a24613af0565b500390565b600063ffffffff83811690831681811015613a4657613a46613af0565b039392505050565b60005b83811015613a69578181015183820152602001613a51565b838111156131185750506000910152565b600081613a8957613a89613af0565b506000190190565b600063ffffffff821680613aa757613aa7613af0565b6000190192915050565b6000600019821415613ac557613ac5613af0565b5060010190565b600063ffffffff80831681811415613ae657613ae6613af0565b6001019392505050565b634e487b7160e01b600052601160045260246000fd5b634e487b7160e01b600052604160045260246000fdfeed726abc78fd0de547fe6690a9e55d104343f0d09ddf8b68bce72a359aff1f89a2646970667358221220c42e5c0ed3535efd3ba8864317735d0a6df3601a68bfc6942198b04a9f45a12964736f6c63430008030033",
  "immutableReferences": {},
  "source": "// SPDX-License-Identifier: GPL-3.0\r\npragma solidity ^0.8.3;\r\n// import \"@openzeppelin/contracts-upgradeable/token/ERC721/extensions/ERC721EnumerableUpgradeable.sol\";\r\nimport \"@openzeppelin/contracts-upgradeable/security/PausableUpgradeable.sol\";\r\nimport \"@openzeppelin/contracts-upgradeable/access/AccessControlUpgradeable.sol\";\r\nimport \"./RubyToken.sol\";\r\nimport \"./WODToken.sol\";\r\nimport \"./DogeHero.sol\";\r\nimport \"./GeneScience.sol\";\r\ncontract DogeWar is AccessControlUpgradeable, PausableUpgradeable {//ERC721EnumerableUpgradeable\r\n    // Percentage of difference of points to be in same range of lower and upper rivals.\r\n    uint256 public lowerPointsThreshold;\r\n    uint256 public upperPointsThreshold;\r\n    uint256 public rubyPerBlock;\r\n    uint256 public wodPerBlock;\r\n\r\n    uint256 public lastRewardBlock;\r\n    uint256 public totalShare;\r\n    uint256 public accRubyPerShare;\r\n    uint256 public accWODPerShare;\r\n    uint256 private constant _NOT_ENTERED = 1;\r\n    uint256 private constant _ENTERED = 2;\r\n\r\n    address public devAddress;\r\n    address[] public allHeroOwners;\r\n    RubyToken public rubyToken;\r\n    DogeHero public dogeHero;\r\n    GeneScience public geneScience;\r\n    WODToken public wodToken;\r\n    bytes32 public constant CEO_ROLE = keccak256(\"CEO_ROLE\");\r\n    mapping(address => uint256) private _heroEntered;\r\n    mapping(address => uint256) private _heroOwnerAdded;\r\n    mapping(address => Hero) public heroInfo;\r\n\r\n    // Mapping from doge ID to owner address\r\n    mapping(uint256 => address) private _owners;\r\n\r\n    // Mapping owner address to token count\r\n    // mapping(address => uint256) private _balances;\r\n\r\n    // Mapping from owner to list of owned token IDs\r\n    // mapping(address => mapping(uint256 => uint256)) private _ownedTokens;\r\n\r\n    // user address => doges are staking\r\n    mapping(address => uint256[]) private _doges;\r\n\r\n    // Mapping from doge ID to index of the owner doges list\r\n    mapping(uint256 => uint256) private _ownedDogesIndex;\r\n    // Mapping from address to position in the allHeroes array\r\n    mapping(address => uint256) private _allHeroOwnersIndex;\r\n\r\n    /* struct Hero{\r\n        uint64 rank;\r\n        uint64 share;\r\n        uint64 health;\r\n        uint64 maxHealth;\r\n        uint64 attack;\r\n        uint64 defense;\r\n        uint64 healthRecovery;\r\n        uint64 lastRecoverBlock;\r\n        uint256 rubyDebt;\r\n        uint256 wodDebt;\r\n    } */\r\n    struct Hero{\r\n        uint32 rank;\r\n        uint32 share;\r\n        uint32 health;\r\n        uint32 attack;\r\n        uint32 defense;\r\n        uint176 rubyDebt;\r\n        uint176 wodDebt;\r\n    }\r\n    //mapping (uint256 => Hero) public tokenIdToHero;\r\n    event DepositDoges(address indexed owner, uint256[] dogeIds);\r\n    event WithdrawDoges(address indexed owner, uint256[] dogeIds);\r\n    event CreateHero(address indexed heroOwner, uint256 heroId);\r\n    event RetireHero(address indexed heroOwner, uint256 heroId);\r\n    event AttackHero(address indexed attacker, address indexed defender, uint256 status, uint256 reward);\r\n    modifier nonReentrant(address heroOwner) {        \r\n        require(_heroEntered[heroOwner] != _ENTERED);        \r\n        _heroEntered[heroOwner] = _ENTERED;\r\n        _;        \r\n        _heroEntered[heroOwner] = _NOT_ENTERED;\r\n    }\r\n    \r\n    function initialize() public initializer{\r\n        __AccessControl_init();\r\n        __Pausable_init();\r\n        _setupRole(DEFAULT_ADMIN_ROLE, msg.sender);\r\n        _setupRole(CEO_ROLE, msg.sender);\r\n        devAddress = msg.sender;\r\n        rubyPerBlock = 100*10**18;\r\n        wodPerBlock = 10*10**18;\r\n        lowerPointsThreshold = 35;//35%\r\n        upperPointsThreshold = 1000;//1000%\r\n    }\r\n    /* function supportsInterface(bytes4 interfaceId) public view virtual override(AccessControlUpgradeable, ERC721EnumerableUpgradeable) returns (bool) {\r\n        return super.supportsInterface(interfaceId);\r\n    } */\r\n    function setDev(address newDev) external onlyRole(DEFAULT_ADMIN_ROLE){\r\n        require(newDev != address(0));\r\n        devAddress = newDev;\r\n    }\r\n    function setRubyToken(address _rubyToken) external onlyRole(CEO_ROLE){\r\n        rubyToken = RubyToken(_rubyToken);\r\n    }\r\n    function setGeneScience(address _geneScience) external onlyRole(CEO_ROLE){\r\n        geneScience = GeneScience(_geneScience);\r\n    }\r\n    function setDogeHero(address _dogeHero) external onlyRole(CEO_ROLE){\r\n        dogeHero = DogeHero(payable(_dogeHero));\r\n    }\r\n    function setWODToken(address _wodToken) external onlyRole(CEO_ROLE) {\r\n        wodToken = WODToken(_wodToken);\r\n    }\r\n    function setRubyPerBlock(uint256 _rubyPerBlock) external onlyRole(DEFAULT_ADMIN_ROLE){\r\n        rubyPerBlock = _rubyPerBlock;\r\n    }\r\n    function setWODPerBlock(uint256 _wodPerBlock) external onlyRole(DEFAULT_ADMIN_ROLE) {\r\n        wodPerBlock = _wodPerBlock;\r\n    }\r\n    function pause() external onlyRole(CEO_ROLE) whenNotPaused{\r\n        _pause();\r\n    }\r\n    function unpause() external onlyRole(CEO_ROLE) whenPaused{\r\n        _unpause();\r\n    }\r\n   \r\n    function depositDoges(uint256[] memory dogeIds) \r\n        external \r\n        whenNotPaused \r\n        nonReentrant(msg.sender)\r\n    {\r\n        updateReward();\r\n        Hero storage hero = heroInfo[msg.sender];\r\n        if(hero.share > 0){\r\n            _harvestReward(hero, msg.sender);\r\n        } else {\r\n            if(_heroOwnerAdded[msg.sender] != _ENTERED){\r\n                _addHeroToAllHeroes(msg.sender);\r\n            }\r\n        }\r\n        for(uint256 i = 0; i < dogeIds.length; i++){\r\n            _enterWar(msg.sender, dogeIds[i]);\r\n        }\r\n        _addHeroes(hero, dogeIds);\r\n        _updateRewardDebt(hero);\r\n        emit DepositDoges(msg.sender, dogeIds);\r\n    }\r\n    \r\n    /* function heroLeave(uint256 amount) external whenNotPaused nonReentrant(msg.sender){\r\n        uint256 balance = balanceOf(msg.sender);\r\n        require(balance >= amount);\r\n        updateReward();\r\n        Hero storage hero = heroInfo[msg.sender];\r\n        _harvestReward(hero, msg.sender);\r\n        uint256[] memory heroIds = new uint256[](amount);\r\n        uint256 originalBalance = balance;\r\n        for(uint256 i = 0; i < amount; i++){\r\n            balance--;\r\n            //leave the last hero to avoid swapping cost in _removeTokenFromOwnerEnumeration function\r\n            uint256 heroId = tokenOfOwnerByIndex(msg.sender, balance);\r\n            heroIds[i] = heroId;\r\n            _exitWar(msg.sender, heroId);\r\n        }\r\n        _removeHeroes(hero, heroIds);\r\n        _updateRewardDebt(hero);\r\n        if(originalBalance == amount){\r\n            _retireHero(msg.sender);\r\n        }\r\n    } */\r\n\r\n    function withdrawDoges(uint256[] memory dogeIds) \r\n        external \r\n        whenNotPaused \r\n        nonReentrant(msg.sender)\r\n    {       \r\n        require(_validOwner(msg.sender, dogeIds));\r\n        updateReward();\r\n        Hero storage hero = heroInfo[msg.sender];\r\n        _harvestReward(hero, msg.sender);\r\n        _removeHeroes(hero, dogeIds);\r\n        _updateRewardDebt(hero);\r\n        //leave multi heroes\r\n        for(uint256 i = 0; i < dogeIds.length; i++){\r\n            _exitWar(msg.sender, dogeIds[i]);\r\n        }\r\n        if(balanceOf(msg.sender) == 0){\r\n            _retireHero(msg.sender);\r\n        }\r\n        emit WithdrawDoges(msg.sender, dogeIds);\r\n    }\r\n    \r\n    //this function will fail if there are too many heroes to leave\r\n    function withdrawAllDoges() \r\n        external \r\n        whenNotPaused \r\n        nonReentrant(msg.sender)\r\n    {\r\n        uint256 balance = balanceOf(msg.sender);\r\n        require(balance > 0);\r\n        updateReward();\r\n        Hero storage hero = heroInfo[msg.sender];\r\n        _harvestReward(hero, msg.sender);\r\n        totalShare -= hero.share;\r\n        // emit WithdrawDoges(msg.sender, _doges);\r\n        delete heroInfo[msg.sender];\r\n        _retireHero(msg.sender);\r\n        _transferDoges(msg.sender);\r\n    }\r\n    function attackHero(address defenderAddress) \r\n        external \r\n        whenNotPaused \r\n        nonReentrant(msg.sender)\r\n    {\r\n        updateReward();\r\n        // address defenderAddress = ownerOf(defenderId);\r\n        require(balanceOf(defenderAddress) > 0);\r\n        require(areInPointsRange(msg.sender, defenderAddress));\r\n        \r\n        Hero storage defender = heroInfo[defenderAddress];\r\n        Hero storage attacker = heroInfo[msg.sender];\r\n        // _recoverHero(defender);\r\n        // _recoverHero(attacker);        \r\n       \r\n        uint256 trueDamageOfAttacker;\r\n        uint256 trueDamageOfDefender;\r\n        uint256 attackerDefense = attacker.defense;\r\n        uint256 attackerAttack = attacker.attack;\r\n        uint256 attackerHealth = attacker.health;\r\n\r\n        uint256 defenderDefense = defender.defense;\r\n        uint256 defenderAttack = defender.attack;\r\n        uint256 defenderHealth = defender.health;\r\n\r\n        if(defenderDefense < attackerAttack){\r\n            trueDamageOfAttacker = attackerAttack - defenderDefense;            \r\n            defenderHealth = (defenderHealth > trueDamageOfAttacker) ? (defenderHealth - trueDamageOfAttacker) : 0;\r\n        }\r\n\r\n        if(attackerDefense < defenderAttack){\r\n            trueDamageOfDefender = defenderAttack - attackerDefense;            \r\n            attackerHealth = (attackerHealth > trueDamageOfDefender) ? (attackerHealth - trueDamageOfDefender) : 0;\r\n        }\r\n        uint256 reward;\r\n        uint256 status;//=0: draw\r\n        if(defenderHealth == 0){\r\n            //attacker will rob all defender's ruby\r\n            status = 1;//=1: win\r\n            reward = _harvestRuby(defender, msg.sender);            \r\n            _updateRubyDebt(defender);\r\n            if(defender.rank > 0) defender.rank--;\r\n            attacker.rank++;\r\n        }\r\n        if(attackerHealth == 0){\r\n            //attacker lose and rank minus 1\r\n            status = 2;//=2: lose\r\n            // reward = _harvestRuby(attacker, defenderAddress);\r\n            // _updateRubyDebt(attacker);\r\n            if(attacker.rank > 0) attacker.rank--;\r\n            defender.rank++;\r\n        }\r\n        /* if(trueDamageOfDefender != 0){\r\n            attacker.health = attackerHealth;\r\n        }\r\n        if(trueDamageOfAttacker != 0){\r\n            defender.health = defenderHealth;\r\n        } */\r\n        //end attack\r\n        // heroEntered[defenderAddress] == false;\r\n        emit AttackHero(msg.sender, defenderAddress, status, reward);\r\n    }\r\n    function harvestReward() \r\n        external \r\n        whenNotPaused \r\n        nonReentrant(msg.sender)\r\n    {        \r\n        updateReward();        \r\n        Hero storage hero = heroInfo[msg.sender];\r\n        if(hero.share > 0){\r\n            _harvestReward(hero, msg.sender);\r\n        }        \r\n        _updateRewardDebt(hero);\r\n    }\r\n    \r\n    function pendingReward() \r\n        external \r\n        view \r\n        returns(uint256 pendingRuby, uint256 pendingWOD)\r\n    {\r\n        Hero memory hero = heroInfo[msg.sender];\r\n        uint256 rubyPerShare = accRubyPerShare;\r\n        uint256 wodPerShare = accWODPerShare;\r\n        if (block.number > lastRewardBlock && totalShare != 0) {\r\n            uint256 rubyReward = _getRubyReward(lastRewardBlock);\r\n            uint256 wodReward = _getWODReward(lastRewardBlock);\r\n            rubyPerShare += (rubyReward * 1e12) / totalShare;\r\n            wodPerShare += (wodReward * 1e12) / totalShare;\r\n        }         \r\n        pendingRuby = ((hero.share * rubyPerShare) / 1e12) - hero.rubyDebt;\r\n        pendingWOD = ((hero.share * wodPerShare) / 1e12) - hero.wodDebt;\r\n    }\r\n    \r\n    function updateReward() public {\r\n        uint256 lastBlock = lastRewardBlock;\r\n        uint256 share = totalShare;\r\n        if (block.number <= lastBlock) {\r\n            return;\r\n        }\r\n        if (share == 0) {            \r\n            lastRewardBlock = block.number;\r\n            return;\r\n        }\r\n        \r\n        uint256 rubyReward = _getRubyReward(lastBlock);\r\n        uint256 wodReward = _getWODReward(lastBlock);\r\n        _mintRuby(address(this), rubyReward);\r\n        _mintWOD(address(this), wodReward);\r\n        accRubyPerShare += (rubyReward * 1e12) / share;\r\n        accWODPerShare += (wodReward * 1e12) / share;\r\n        \r\n        lastRewardBlock = block.number;\r\n    }\r\n    \r\n    function areInPointsRange(address _attacker, address _defender) public view returns (bool) {\r\n        Hero memory attacker = heroInfo[_attacker];\r\n        Hero memory defender = heroInfo[_defender];\r\n        uint256 attackerRank = attacker.rank;\r\n        uint256 defenderRank = defender.rank;\r\n\r\n        if (_attacker == address(0) || _defender == address(0) || _attacker == _defender) return false;\r\n        if (attackerRank < 20) return true;\r\n\r\n        uint256 pointsPercentageDifference;\r\n        if (attackerRank < defenderRank) {\r\n        // Will only be in range if the difference between points is less % than upperPointsThreshold\r\n        pointsPercentageDifference = ((defenderRank * 100) / attackerRank) - 100;\r\n        return pointsPercentageDifference < upperPointsThreshold;\r\n        } else {\r\n        uint256 rankDifference = attackerRank - defenderRank;\r\n        // Will only be in range if the difference between points is less % than lowerPointsThreshold\r\n        pointsPercentageDifference = rankDifference * 100 / attackerRank;\r\n        return pointsPercentageDifference < lowerPointsThreshold;\r\n        }\r\n    }\r\n    /**\r\n    * @notice Set Points Threshold.\r\n    * @dev Function to set the points threshold.\r\n    * @param _lowerPointsThreshold its the max percentage of difference for a lower rival.\r\n    * @param _upperPointsThreshold its the max percentage of difference for an upper rival.\r\n    */\r\n    function setPointsThreshold(uint256 _lowerPointsThreshold, uint256 _upperPointsThreshold) external onlyRole(CEO_ROLE) {\r\n        require(_lowerPointsThreshold > 0 && _lowerPointsThreshold < 100);\r\n        require(_upperPointsThreshold > 0);\r\n        lowerPointsThreshold = _lowerPointsThreshold;\r\n        upperPointsThreshold = _upperPointsThreshold;\r\n    }\r\n\r\n    function balanceOf(address owner) public view returns (uint256) {\r\n        require(owner != address(0));\r\n        // return _balances[owner];\r\n        return _doges[owner].length;\r\n    }\r\n\r\n    function ownerOf(uint256 dogeId) public view returns (address) {\r\n        address owner = _owners[dogeId];\r\n        require(owner != address(0));\r\n        return owner;\r\n    }\r\n    function getDoges(address owner) external view returns(uint256[] memory){\r\n        return _doges[owner];\r\n    }\r\n    /* function tokenOfOwnerByIndex(address owner, uint256 index) public view returns (uint256) {\r\n        require(index < balanceOf(owner), \"Owner index out of bounds\");\r\n        return _ownedTokens[owner][index];\r\n    } */\r\n\r\n    function getTotalHeroOwner() external view returns(uint256){\r\n        return allHeroOwners.length;\r\n    }\r\n    function getHeroOwners() external view returns(address[] memory){\r\n        return allHeroOwners;\r\n    }\r\n    function getDogeTraits(uint256 dogeId) public view returns(uint256[12] memory traits){\r\n        (,,,,,,,,,uint256 genes) = dogeHero.getDoge(dogeId);\r\n        traits = geneScience.expressingTraits(genes);\r\n    }\r\n    function getDogeStat(uint256 dogeId) \r\n        public \r\n        view \r\n        returns(\r\n            uint256 share, \r\n            uint256 health, \r\n            uint256 attack, \r\n            uint256 defense){\r\n        uint256[12] memory traits = getDogeTraits(dogeId);\r\n        share = _getTraitValue(traits[0]) + _getTraitValue(traits[1]) + _getTraitValue(traits[2]);\r\n        health = _getTraitValue(traits[3]) + _getTraitValue(traits[4]) + _getTraitValue(traits[5]);\r\n        attack = _getTraitValue(traits[6]) + _getTraitValue(traits[7]) + _getTraitValue(traits[8]);\r\n        defense = _getTraitValue(traits[9]) + _getTraitValue(traits[10]) + _getTraitValue(traits[11]); \r\n        // recoverHealth = _getTraitValue(traits[11]);\r\n    }    \r\n    function _mint(address to, uint256 tokenId) internal {\r\n        require(to != address(0));\r\n        _beforeTokenTransfer(address(0), to, tokenId);\r\n        // _balances[to] += 1;\r\n        _owners[tokenId] = to;\r\n    }\r\n\r\n    function _burn(uint256 tokenId) internal {\r\n        address owner = ownerOf(tokenId);\r\n        _beforeTokenTransfer(owner, address(0), tokenId);\r\n        // _balances[owner] -= 1;\r\n        delete _owners[tokenId];\r\n    }\r\n    function _beforeTokenTransfer(\r\n        address from,\r\n        address to,\r\n        uint256 tokenId\r\n    ) internal {\r\n        if (from == address(0)) {\r\n            // _addTokenToAllTokensEnumeration(tokenId);\r\n        } else if (from != to) {\r\n            _removeTokenFromOwnerEnumeration(from, tokenId);\r\n        }\r\n        if (to == address(0)) {\r\n            // _removeTokenFromAllTokensEnumeration(tokenId);\r\n        } else if (to != from) {\r\n            _addTokenToOwnerEnumeration(to, tokenId);\r\n        }\r\n    }\r\n    function _addTokenToOwnerEnumeration(address to, uint256 dogeId) private {\r\n        // uint256 length = balanceOf(to);\r\n        // _ownedTokens[to][length] = tokenId;\r\n        _ownedDogesIndex[dogeId] = _doges[to].length;\r\n        _doges[to].push(dogeId);\r\n    }\r\n    function _removeTokenFromOwnerEnumeration(address from, uint256 tokenId) private {\r\n        // To prevent a gap in from's tokens array, we store the last token in the index of the token to delete, and\r\n        // then delete the last slot (swap and pop).\r\n\r\n        uint256 lastTokenIndex = balanceOf(from) - 1;\r\n        uint256 tokenIndex = _ownedDogesIndex[tokenId];\r\n\r\n        uint256[] storage heroes = _doges[from];\r\n        // When the token to delete is the last token, the swap operation is unnecessary\r\n        if (tokenIndex != lastTokenIndex) {\r\n            // uint256 lastTokenId = _ownedTokens[from][lastTokenIndex];\r\n\r\n            // _ownedTokens[from][tokenIndex] = lastTokenId; // Move the last token to the slot of the to-delete token\r\n            // _ownedDogesIndex[lastTokenId] = tokenIndex; // Update the moved token's index\r\n\r\n            \r\n\r\n        // uint256 index = _heroIndexes[_heroId];\r\n\r\n        heroes[tokenIndex] = heroes[lastTokenIndex];\r\n\r\n        _ownedDogesIndex[heroes[tokenIndex]] = tokenIndex;\r\n        }\r\n\r\n        // This also deletes the contents at the last position of the array\r\n        delete _ownedDogesIndex[tokenId];\r\n        // delete _ownedTokens[from][lastTokenIndex];\r\n        heroes.pop();\r\n    }\r\n    \r\n    function _enterWar(address owner, uint256 heroId) internal{\r\n        require(!dogeHero.isPregnant(heroId));\r\n        dogeHero.transferFrom(owner, address(this), heroId);\r\n        _mint(owner, heroId);\r\n    }\r\n    function _safeRubyTransfer(address _to, uint256 _amount) internal {\r\n        uint256 rubyBal = rubyToken.balanceOf(address(this));\r\n        if (_amount > rubyBal) {\r\n            rubyToken.transfer(_to, rubyBal);\r\n        } else {\r\n            rubyToken.transfer(_to, _amount);\r\n        }\r\n    }\r\n    function _safeWODTransfer(address _to, uint256 _amount) internal {\r\n        uint256 wodBal = wodToken.balanceOf(address(this));\r\n        if (_amount > wodBal) {\r\n            wodToken.transfer(_to, wodBal);\r\n        } else {\r\n            wodToken.transfer(_to, _amount);\r\n        }\r\n    }\r\n    function _harvestReward(Hero storage hero, address receiver) internal {\r\n        _harvestRuby(hero, receiver);\r\n        _harvestWOD(hero, receiver);\r\n    }\r\n    \r\n    function _harvestRuby(Hero storage hero, address receiver) internal returns(uint256) {        \r\n        uint256 pending = ((hero.share * accRubyPerShare) / 1e12) - hero.rubyDebt;\r\n        if(pending > 0) {\r\n            _safeRubyTransfer(receiver, pending);\r\n        }        \r\n        return pending;\r\n    }\r\n    function _harvestWOD(Hero storage hero, address receiver) internal returns(uint256) {        \r\n        uint256 pending = ((hero.share * accWODPerShare) / 1e12) - hero.wodDebt;\r\n        if(pending > 0) {\r\n            _safeWODTransfer(receiver, pending);\r\n        }        \r\n        return pending;\r\n    }\r\n    \r\n    /* function _recoverHero(Hero storage hero) internal{\r\n        uint256 multiplier = block.number - hero.lastRecoverBlock;\r\n        if(multiplier > 0){\r\n            uint256 recoverHealth = hero.healthRecovery * multiplier;\r\n            if(recoverHealth >= (hero.maxHealth - hero.health)){\r\n                hero.health = hero.maxHealth;\r\n            } else{\r\n                hero.health += uint64(recoverHealth);\r\n            }\r\n            hero.lastRecoverBlock = uint64(block.number);\r\n        }        \r\n    } */\r\n    function _updateRewardDebt(Hero storage hero) internal {        \r\n        _updateRubyDebt(hero);\r\n        _updateWODDebt(hero);\r\n    }\r\n    function _updateRubyDebt(Hero storage hero) internal {\r\n        hero.rubyDebt = uint176((hero.share * accRubyPerShare) / 1e12);\r\n    }\r\n    function _updateWODDebt(Hero storage hero) internal {\r\n        hero.wodDebt = uint176((hero.share * accWODPerShare) / 1e12);\r\n    }\r\n    /* function getDogeStat(uint256 heroId) internal view returns(uint64 share, \r\n        uint64 health, \r\n        uint64 attack, \r\n        uint64 defense,\r\n        uint64 recoverHealth){\r\n        uint8[12] memory traits = _getHeroTraits(heroId);\r\n        share = _getTraitValue(traits[0]) + _getTraitValue(traits[1]) + _getTraitValue(traits[2]);\r\n        health = _getTraitValue(traits[3]) + _getTraitValue(traits[4]) + _getTraitValue(traits[5]);\r\n        attack = _getTraitValue(traits[6]) + _getTraitValue(traits[7]) + _getTraitValue(traits[8]);\r\n        defense = _getTraitValue(traits[9]) + _getTraitValue(traits[10]) + _getTraitValue(traits[11]); \r\n        // recoverHealth = _getTraitValue(traits[11]);\r\n    }     */\r\n    \r\n    function _getTraitValue(uint256 trait) internal pure returns(uint256 traitValue){\r\n        if(trait < 16) traitValue = trait;\r\n        else if(trait < 24) traitValue = 2 * trait;\r\n        else if(trait < 28) traitValue = 6 * trait;\r\n        else if(trait < 30) traitValue = 24 * trait;\r\n        else traitValue = 120 * trait;\r\n    }\r\n    function _mintRuby(address account, uint256 amount) internal{\r\n        rubyToken.mint(account, amount);\r\n        rubyToken.mint(devAddress, amount/10);\r\n    }\r\n    function _mintWOD(address account, uint256 amount) internal {        \r\n        if(amount > 0){\r\n            wodToken.mint(account, amount);\r\n            wodToken.mint(devAddress, amount/10);\r\n        }\r\n    }\r\n    function _getRubyReward(uint256 lastBlock) private view returns(uint256) {\r\n        return (block.number - lastBlock) * rubyPerBlock;\r\n    }\r\n    function _getWODReward(uint256 lastBlock) private view returns(uint256){\r\n        uint256 wodReward = (block.number - lastBlock) * wodPerBlock;\r\n\r\n        uint256 totalWOD = wodToken.totalSupply();\r\n        uint256 maxWOD = wodToken.MAX_SUPPLY();\r\n        if(totalWOD + (wodReward*11)/10 > maxWOD){\r\n            wodReward = ((maxWOD - totalWOD)*10)/11;\r\n        }\r\n        return wodReward;\r\n    }\r\n    /* function _addHeroes(Hero storage hero, uint256[] memory heroIds) internal {\r\n        uint64 share;\r\n        uint64 health;\r\n        uint64 attack;\r\n        uint64 defense;\r\n        uint64 recoverHealth;\r\n        for(uint256 i = 0; i < heroIds.length; i++){\r\n            (uint64 _share, \r\n            uint64 _health, \r\n            uint64 _attack, \r\n            uint64 _defense, \r\n            uint64 _recoverHealth) = getDogeStat(heroIds[i]); \r\n            share += _share;\r\n            health += _health;\r\n            attack += _attack;\r\n            defense += _defense;\r\n            recoverHealth += _recoverHealth;\r\n        }\r\n        totalShare += share;\r\n        hero.share += share;\r\n        hero.maxHealth += health;\r\n        hero.health = hero.maxHealth;\r\n        hero.healthRecovery += recoverHealth;\r\n        hero.attack += attack;\r\n        hero.defense += defense;\r\n        hero.lastRecoverBlock = uint64(block.number);\r\n    } */\r\n    function _addHeroes(Hero storage hero, uint256[] memory heroIds) internal {\r\n        uint256 share;\r\n        uint256 health;\r\n        uint256 attack;\r\n        uint256 defense;\r\n        // uint64 recoverHealth;\r\n        for(uint256 i = 0; i < heroIds.length; i++){\r\n            (uint256 _share, \r\n            uint256 _health, \r\n            uint256 _attack, \r\n            uint256 _defense) = getDogeStat(heroIds[i]); \r\n            share += _share;\r\n            health += _health;\r\n            attack += _attack;\r\n            defense += _defense;\r\n            // recoverHealth += _recoverHealth;\r\n        }\r\n        totalShare += share;\r\n        hero.share += uint32(share);\r\n        // hero.maxHealth += health;\r\n        hero.health += uint32(health);\r\n        // hero.healthRecovery += recoverHealth;\r\n        hero.attack += uint32(attack);\r\n        hero.defense += uint32(defense);\r\n        // hero.lastRecoverBlock = uint64(block.number);\r\n    }\r\n    /* function _removeHeroes(Hero storage hero, uint256[] memory heroIds) internal {\r\n        uint64 share;\r\n        uint64 health;\r\n        uint64 attack;\r\n        uint64 defense;\r\n        uint64 recoverHealth;\r\n        for(uint256 i = 0; i < heroIds.length; i++){\r\n            (uint64 _share, \r\n            uint64 _health, \r\n            uint64 _attack, \r\n            uint64 _defense, \r\n            uint64 _recoverHealth) = getDogeStat(heroIds[i]); \r\n            share += _share;\r\n            health += _health;\r\n            attack += _attack;\r\n            defense += _defense;\r\n            recoverHealth += _recoverHealth;\r\n        }\r\n        totalShare -= share;\r\n        hero.share -= share;\r\n        // hero.maxHealth -= health;\r\n        hero.health -= health;\r\n        // hero.healthRecovery -= recoverHealth;\r\n        hero.attack -= attack;\r\n        hero.defense -= defense;\r\n        // hero.lastRecoverBlock = uint64(block.number);\r\n    } */\r\n    function _removeHeroes(Hero storage hero, uint256[] memory heroIds) internal {\r\n        uint256 share;\r\n        uint256 health;\r\n        uint256 attack;\r\n        uint256 defense;\r\n        // uint64 recoverHealth;\r\n        for(uint256 i = 0; i < heroIds.length; i++){\r\n            (uint256 _share, \r\n            uint256 _health, \r\n            uint256 _attack, \r\n            uint256 _defense) = getDogeStat(heroIds[i]); \r\n            share += _share;\r\n            health += _health;\r\n            attack += _attack;\r\n            defense += _defense;\r\n            // recoverHealth += _recoverHealth;\r\n        }\r\n        totalShare -= share;\r\n        hero.share -= uint32(share);\r\n        // hero.maxHealth -= health;\r\n        hero.health -= uint32(health);\r\n        // hero.healthRecovery -= recoverHealth;\r\n        hero.attack -= uint32(attack);\r\n        hero.defense -= uint32(defense);\r\n        // hero.lastRecoverBlock = uint64(block.number);\r\n    }\r\n    function _exitWar(address receiver, uint256 heroId) internal{\r\n        // The exit is good! Remove the escrow heroID before sending the heroID\r\n        // to the sender so we can't have a reentrancy attack.\r\n        _burn(heroId);\r\n        dogeHero.transferFrom(address(this), receiver, heroId);        \r\n    }\r\n    function _transferDoges(address receiver) internal{\r\n        uint256[] memory dogeIds = _doges[receiver];\r\n        emit WithdrawDoges(receiver, dogeIds);\r\n        delete _doges[receiver];\r\n        for(uint256 i = 0; i < dogeIds.length; i++){\r\n            uint256 dogeId = dogeIds[i];\r\n            delete _owners[dogeId];\r\n            delete _ownedDogesIndex[dogeId];\r\n            dogeHero.transferFrom(address(this), receiver, dogeId);\r\n        }\r\n        /* uint256 index = totalHeroes;\r\n        for(uint256 i = 0; i < totalHeroes; i++){\r\n            index--;\r\n            _exitWar(receiver, tokenOfOwnerByIndex(receiver, index));\r\n        } */\r\n    }\r\n    function _validOwner(address owner, uint256[] memory heroIds) internal view returns(bool valid){\r\n        valid = true;\r\n        for(uint256 i = 0; i < heroIds.length; i++){            \r\n            if(ownerOf(heroIds[i]) != owner){\r\n                return false;\r\n            }\r\n        }\r\n    }\r\n    function _retireHero(address _heroOwner) private {        \r\n        uint256 lastHeroIndex = allHeroOwners.length - 1;\r\n        uint256 currentHeroIndex = _allHeroOwnersIndex[_heroOwner];\r\n        emit RetireHero(_heroOwner, currentHeroIndex);\r\n        if(lastHeroIndex != currentHeroIndex){\r\n            address lastHeroOwner = allHeroOwners[lastHeroIndex];\r\n\r\n            allHeroOwners[currentHeroIndex] = lastHeroOwner; // Move the last token to the slot of the to-delete token\r\n            _allHeroOwnersIndex[lastHeroOwner] = currentHeroIndex; // Update the moved token's index\r\n        }       \r\n        // This also deletes the contents at the last position of the array\r\n        delete _allHeroOwnersIndex[_heroOwner];\r\n        allHeroOwners.pop();\r\n        _heroOwnerAdded[msg.sender] = _NOT_ENTERED;\r\n    }\r\n    function _addHeroToAllHeroes(address _heroOwner) private {\r\n        _heroOwnerAdded[msg.sender] = _ENTERED;\r\n        _allHeroOwnersIndex[_heroOwner] = allHeroOwners.length;\r\n        emit CreateHero(_heroOwner, allHeroOwners.length);\r\n        allHeroOwners.push(_heroOwner);\r\n    }\r\n}",
  "sourcePath": "E:\\Solidity\\worldofdoge2\\contracts\\DogeWar.sol",
  "compiler": {
    "name": "solc",
    "version": "0.8.3+commit.8d00100c.Emscripten.clang"
  },
  "schemaVersion": "3.4.3",
  "updatedAt": "2022-02-22T04:39:38.744Z",
  "networkType": "ethereum",
  "devdoc": {
    "kind": "dev",
    "methods": {
      "getRoleAdmin(bytes32)": {
        "details": "Returns the admin role that controls `role`. See {grantRole} and {revokeRole}. To change a role's admin, use {_setRoleAdmin}."
      },
      "grantRole(bytes32,address)": {
        "details": "Grants `role` to `account`. If `account` had not been already granted `role`, emits a {RoleGranted} event. Requirements: - the caller must have ``role``'s admin role."
      },
      "hasRole(bytes32,address)": {
        "details": "Returns `true` if `account` has been granted `role`."
      },
      "paused()": {
        "details": "Returns true if the contract is paused, and false otherwise."
      },
      "renounceRole(bytes32,address)": {
        "details": "Revokes `role` from the calling account. Roles are often managed via {grantRole} and {revokeRole}: this function's purpose is to provide a mechanism for accounts to lose their privileges if they are compromised (such as when a trusted device is misplaced). If the calling account had been revoked `role`, emits a {RoleRevoked} event. Requirements: - the caller must be `account`."
      },
      "revokeRole(bytes32,address)": {
        "details": "Revokes `role` from `account`. If `account` had been granted `role`, emits a {RoleRevoked} event. Requirements: - the caller must have ``role``'s admin role."
      },
      "setPointsThreshold(uint256,uint256)": {
        "details": "Function to set the points threshold.",
        "params": {
          "_lowerPointsThreshold": "its the max percentage of difference for a lower rival.",
          "_upperPointsThreshold": "its the max percentage of difference for an upper rival."
        }
      },
      "supportsInterface(bytes4)": {
        "details": "See {IERC165-supportsInterface}."
      }
    },
    "version": 1
  },
  "userdoc": {
    "kind": "user",
    "methods": {
      "setPointsThreshold(uint256,uint256)": {
        "notice": "Set Points Threshold."
      }
    },
    "version": 1
  }
}